:020000040800F2
:10000000C00800209D010008FD060008F506000854
:10001000F9060008C3030008B91900080000000031
:10002000000000000000000000000000A50D000816
:10003000C703000800000000250C0008D50E0008CA
:10004000B7010008B7010008B7010008B7010008B0
:10005000B7010008B7010008C9030008E903000858
:10006000B7010008B7010008B7010008B701000890
:10007000B7010008B7010008B7010008B701000880
:10008000B7010008B7010008B7010008B701000870
:10009000B7010008B7010008B7010008B701000860
:1000A000B7010008B7010008B7010008B701000850
:1000B000B7010008F5100008B7010008B7010008F3
:1000C000B7010008B7010008B7010008B701000830
:1000D000B701000889170008B7010008B701000838
:1000E000B7010008B7010008B7010008B701000810
:1000F000B7010008B7010008B7010008B701000800
:10010000B7010008B701000835120008B701000860
:10011000B7010008B7010008B7010008B7010008DF
:10012000B7010008B7010008B7010008B7010008CF
:10013000B7010008B7010008B7010008B7010008BF
:10014000B7010008B7010008B7010008B7010008AF
:10015000B7010008B7010008B7010008B70100089F
:10016000B7010008B7010008B7010008B70100088F
:10017000B7010008B7010008B7010008B70100087F
:10018000B7010008B7010008DFF80CD000F018F83C
:1001900000480047DD190008C008002006488047D5
:1001A00006480047FEE7FEE7FEE7FEE7FEE7FEE75C
:1001B000FEE7FEE7FEE7FEE7D90E0008890100082A
:1001C000064C074D06E0E06840F0010394E80700A4
:1001D00098471034AC42F6D3FFF7DAFF88330008B3
:1001E000A833000821B1826842F00102826003E076
:1001F000826822F001028260704700000021084AF4
:100200001168084A1140D0E900231A4383681A4351
:10021000C3681A431143044AC2F80413704700002C
:1002200004230140E030FCFF002001400146C86C7F
:1002300080B2704730B50246002000235068104C51
:1002400020400D790C6844EA0524204350609068F2
:100250000C4C2040D1E903542C438D682C434D793C
:1002600044EA450420439060D06A20F470000C7D7D
:10027000641EE4B2234340EA0350D06230BD000064
:10028000FFFEFFFCFDF7FFC000B58BB00020019022
:1002900002900390049001A8FFF7B0FF00200590A2
:1002A0008DF8180001208DF81900002007904FF0FC
:1002B000805007900020099001208DF8280005A9A2
:1002C0000748FFF7B7FF062301220421044800F086
:1002D00009F801210248FFF785FF0BB000BD0000BF
:1002E00000200140F0B504460D4600200021092DF4
:1002F00011DDE068A5F10A0606EB4607072606FAB7
:1003000007F18843A5F10A0606EB460603FA06F153
:100310000843E0600CE0206905EB4507072606FA74
:1003200007F1884305EB450603FA06F1084320610F
:10033000072A0FDA606B561E06EB86071F2606FAA1
:1003400007F18843561E06EB860605FA06F10843B8
:10035000606322E00D2A0FDA206BD61F06EB8607BA
:100360001F2606FA07F18843D61F06EB860605FA14
:1003700006F10843206310E0E06AA2F10D0606EBE7
:1003800086071F2606FA07F18843A2F10D0606EB41
:10039000860605FA06F10843E062F0BD816841F087
:1003A00080418160704710B54FF4C06000F016FACC
:1003B00000F0A5F900F068FC00F08AF800F0FCF805
:1003C00010BD00BFFEE7704710B5012000F02AF80D
:1003D00030B10121034801F0B1F8012000F01CF810
:1003E00010BD00000000014010B5022000F01AF816
:1003F00068B10748406A074908600020044948621C
:100400000021034801F09AF8022000F005F810BD21
:10041000000001402C0000200149086070470000E6
:10042000143C014001460020034A12680A400AB108
:10043000012000E000207047143C014000212349C6
:100440008279002A3AD00A46126803689A430B461A
:100450001A600A1D126803689A430B1D1A6002791C
:1004600011440A6803681A430A60184A083212687D
:1004700003689A43154B08331A601A1D1268036803
:100480009A43124B0C331A604279102A0ED11A1F6C
:10049000126803681A430D4B08331A601A1D12685C
:1004A00003681A43094B0C331A600DE0074942797F
:1004B00011440A6803681A430A6005E0027911448E
:1004C0000A6803689A430A6070470000003C0140D4
:1004D00000B587B08020059001208DF8180000201D
:1004E0008DF81A0003208DF8190001208DF81B00EB
:1004F00005A92C4800F075F80120039000208DF824
:10050000100003A9284800F06CF80220039003A90A
:10051000264800F066F80021032000F045FC012188
:10052000042000F041FC4FF4C050039000208DF8EF
:10053000100003A91E4800F054F810200190032079
:100540008DF8080000208DF80B0001A9154800F077
:1005500048F801208DF8180000208DF81A000320BB
:100560008DF8190001208DF81B004FF4FF40059015
:1005700005A90E4800F035F80320059005A90C48A0
:1005800000F02FF83020059005A90A4800F029F85E
:100590004FF40050059005A9054800F022F807B077
:1005A00000BD000000000240000C024000100240AC
:1005B00000040240000802401CB501200090002009
:1005C0008DF8040008208DF8050001208DF8060044
:1005D0006846FFF733FF022000906846FFF72EFFC2
:1005E0001CBDF0B50A4600210023002400BF3DE0F9
:1005F000012505FA01F3156805EA03049C4234D18C
:1006000005684F000326BE40B543056015794E00CE
:10061000B5400668354305601579012D02D015797E
:10062000022D16D185684F000326BE40B543856074
:1006300055794E00B540866835438560456801268A
:100640008E40B5434560456896798E40B6B23543D5
:100650004560C5684F000326BE40B543C560D579E7
:100660004E00B540C6683543C560491C1029BFD34C
:10067000F0BDF0B5002300244D07ED0E02FA05F39E
:10068000CE1000F1200555F826504E07F70E0F2624
:10069000BE40B543CF1000F1200646F82750CE10DB
:1006A00000F1200555F8265045EA0304CE1000F16C
:1006B000200545F82640F0BD42694A404261704736
:1006C00010B50A48FFF76AFE00240CE00748FFF760
:1006D000ADFD074921F814000448006820F002002D
:1006E00002490860641C322CF0DB10BD0020014080
:1006F0005C04002000BFFEE700BFFEE7704708B5BE
:1007000025208DF8000001208DF8010000208DF8D3
:10071000020001208DF80300684600F023F81D2038
:100720008DF8000001208DF80200684600F01AF8EC
:1007300006208DF8000002208DF80200684600F0C7
:1007400011F807208DF8000003208DF802003220F8
:100750008DF8000004208DF80200684600F002F8D1
:1007600008BD000070B5002100230F22C4781CB31F
:10077000174C246804F4E064C4F5E064C4F3072172
:10078000C1F10404E3B20A4144789C40E1B28478A8
:10079000144021430C07210E0E4C05786155047856
:1007A00004F01F050124AC4005786D11AD0005F182
:1007B000E025C5F8004109E0047804F01F05012494
:1007C000AC40054D0678761145F8264070BD000016
:1007D0000CED00E000E400E080E100E002490143AC
:1007E000024A1160704700000000FA050CED00E0BD
:1007F00030B500240CE0002506E00020074901EB9D
:10080000C5010855681CC5B2802DF6DB601CC4B25A
:10081000082CF0DB00F0C2F830BD00005C000020C6
:10082000C101014A5161704700100240F0B5144601
:1008300000267F2801DC3F2900DDF0BD0B46CF17E5
:1008400001EB5777FF10C7F10707FAB2CF1701EB9B
:100850005777FF10A1EBC707FDB2C5F107070123CA
:10086000BB40DEB24CB10A4B03EBC0039B5C33438D
:10087000074F07EBC007BB5408E0054B03EBC00371
:100880009B5CB343024F07EBC007BB5400BFD4E7E8
:100890005C00002010B501203D4908603D49C1F8C9
:1008A00084023D490860091D086000203849343140
:1008B0000860642000F01CFD01203649C1F8B40234
:1008C0000021AE2000F090F90021D52000F08CF935
:1008D0000021502000F088F90021A82000F084F9C0
:1008E00000213F2000F080F90021D32000F07CF9A6
:1008F0000021084600F078F90021402000F074F94A
:1009000000218D2000F070F90021142000F06CF916
:100910000021202000F068F90021022000F064F995
:100920000021A12000F060F90021C02000F05CF956
:100930000021DA2000F058F90021122000F054F9CB
:100940000021812000F050F90021EF2000F04CF947
:100950000021D92000F048F90021F12000F044F9ED
:100960000021DB2000F040F90021302000F03CF9AC
:100970000021A42000F038F90021A62000F034F96D
:100980000021AF2000F030F9FFF732FF10BD00006A
:1009900080824042008040429002414230B50024B3
:1009A0001CE004F1B001C8B2002100F01DF90021E3
:1009B000084600F019F90021102000F015F9002573
:1009C00008E0084901EBC501085D012100F00CF9C0
:1009D000681CC5B2802DF4DB601CC4B2082CE0DBBF
:1009E00030BD00005C0000202DE9F84F80460F4626
:1009F00016461C46BA462046E31704EB5373DB1039
:100A000021464FEAE47C04EB5C7C4FEAEC0CA4EB5F
:100A1000CC0CBCF1000F02D04FF0010C01E04FF004
:100A2000000C6344224604EBD27C4FEA6C0C03FBBF
:100A30000CF303F0FF0BA6F12000C6B200254EE038
:100A40000C2C07D106EB4600274901EB8000405DE6
:100A5000009013E0102C05D1244800EB0610405DF7
:100A600000900BE0182C07D106EBC600204901EBE3
:100A70008000405D009001E0BDE8F88F4FF0000974
:100A800027E0009800F0800028B1394640460A9AD5
:100A9000FFF7CCFE09E00A9808B9012000E0002029
:100AA000024639464046FFF7C1FE00984006000E58
:100AB0000090781CC7B2A7EB0A00A04205D15746A8
:100AC00008F1010000F0FF0806E009F1010000F064
:100AD000FF09B9F1080FD4DB00BF681CC5B25D4542
:100AE000AEDB00BFC8E70000C81B00083C200008C0
:100AF0002C2600082DE9FF4F81B0074691461E467F
:100B00000E9D4FF0000A002439E0301B401EC1B298
:100B10000A2000F0FBFFB9FBF0F00A21B0FBF1F274
:100B200001FB1208BAF1000F16D1701EA04213DDAE
:100B3000B8F1000F0ED10120AB4605EBDB71491077
:100B400001FB04710090C8B22B4620220299FFF7E6
:100B50004BFF12E04FF0010A0120AB4605EBDB71C1
:100B6000491001FB04710090C8B208F13001CAB20B
:100B70002B460299FFF738FF00BF601CC4B2B44295
:100B8000C3DB05B0BDE8F08FF8B506460F46154645
:100B90001C4621E004EBD4714910C1F18001B1423F
:100BA00002DA00263819C7B2C4F14000B84204DAAC
:100BB000002006460746FFF71BFE012000902A781A
:100BC000234639463046FFF70FFF204604EBD0712D
:100BD00006EB6101CEB26D1C28787E2802DC2878F5
:100BE0002028D7DAF8BD000010B504460B46204691
:100BF000FFF716FE0848036000200849C1F890027C
:100C000007490860012008600349091F086003497B
:100C1000C1F8940210BD000094024142000041421C
:100C2000808240427047000029B1064A12680243A0
:100C3000044B1A6004E0034A12688243014B1A60B5
:100C4000704700003038024029B1064A126802435A
:100C5000044B1A6004E0034A12688243014B1A6095
:100C6000704700004038024029B1064A126802432A
:100C7000044B1A6004E0034A12688243014B1A6075
:100C8000704700004438024010B50121FF20FFF7F3
:100C9000CBFF01210F20FFF7D7FF01211020FFF725
:100CA000E3FF01218803FFF7DFFF01210846FFF77B
:100CB000DBFF01210802FFF7D7FF10BDF0B50021CF
:100CC00000220024022500260223324F3F6807F04D
:100CD0000C0121B1042905D0082937D105E02E4F98
:100CE000076036E02D4F076033E02A4F3F1F3F6813
:100CF000C7F38056274F3F1F3F6807F03F036EB191
:100D0000264FB7FBF3F7DFF88CC0ACF1040CDCF82E
:100D100000C0CCF3881C07FB0CF40CE01E4FB7FBA3
:100D2000F3F7DFF870C0ACF1040CDCF800C0CCF3D2
:100D3000881C07FB0CF4174F3F1F3F68C7F30147A0
:100D40007F1C7D00B4FBF5F7076002E0124F0760DF
:100D500000BF00BF0F4F3F6807F0F0010909104FB7
:100D60007A5C0768D74047600A4F3F6807F4E05154
:100D7000890A0B4F7A5C4768D7408760054F3F6808
:100D800007F46041490B064F7A5C4768D740C7605B
:100D9000F0BD0000083802400024F40040787D01D6
:100DA000000000207047000030B500228B071C0FA8
:100DB0000F2303FA04F20B4B8C1053F824309343A7
:100DC000084C8D1044F8253023468C1053F82430FD
:100DD0008C07240F00FA04F42343024C8D1044F8CE
:100DE000253030BD083801400CB50020019000903E
:100DF0003448006840F480303249086000BF314810
:100E0000006800F4003000900198401C01900098A8
:100E100018B90198B0F5A04FF1D12A48006800F444
:100E2000003010B10120009001E0002000900098F7
:100E3000012846D123484030006840F080502149C5
:100E4000403108602048006840F440401E49086076
:100E50001C48083000681B490831086008460068D3
:100E600040F4004008600846006840F4A050086064
:100E70001648091F0860081F006840F08070091FAD
:100E8000086000BF0F48006800F000700028F9D02B
:100E900040F205700E4908600A480830006820F0EA
:100EA00003000849083108600846006840F0020065
:100EB000086000BF03480830006800F00C000828F4
:100EC000F8D10CBD003802400070004008544007C3
:100ED000003C02407047000010B51548006840F41F
:100EE0007000134908601348006840F00100114980
:100EF000086000200F49083108600E4800680E495C
:100F000008400C4908600D48091D0860081F00686A
:100F100020F48020091F0860002006490C31086079
:100F2000FFF762FF4FF0006001498039086010BD93
:100F300088ED00E000380240FFFFF6FE103000248C
:100F400010B5FFF730FA00F0B5FAFFF79DF900F0A1
:100F500029FDFFF79FFC10BDF0B50C46154600219A
:100F60000022068C4FF6FE773E400684018B028CF1
:100F70004FF60C7631407E1C06EA03162E433143B1
:100F80004FF6F576324044F0010632430183028485
:100F9000F0BDF0B50C461546002100220026078C56
:100FA0004FF6EF7C07EA0C070784018B028C4FF6A3
:100FB000FF7707EA041640F6FF4739404FF6FF7700
:100FC00007EA033739434FF6FF7707EA0527394326
:100FD0004FF65F773A4046F010073A4301830284A8
:100FE000F0BDF0B50C461546002100220026078C06
:100FF0004FF6FF6C07EA0C070784818B028C4FF6D3
:10100000FF7707EA04264FF60C7739404FF6FF7753
:1010100007EA03172F4339434FF2FF573A4046F48C
:1010200080773A4381830284F0BDF0B50C461546C3
:10103000002100220026078C4EF6FF7C07EA0C07F1
:101040000784818B028C4FF6FF7707EA043640F65F
:10105000FF4739404FF6FF7707EA052739434FF638
:10106000FF7707EA0337394345F6FF773A4046F4FE
:1010700080573A4381830284F0BD0000F0B589B007
:1010800004460D461948B0FBF4F0461E701C684338
:101090006421B0FBF1F71648006840081349B0FB23
:1010A000F1F0401E80B2ADF818000020ADF81A0033
:1010B0000796ADF8200006A94FF0804000F022FB13
:1010C0006020ADF804000120ADF806000397002071
:1010D000ADF8100001A94FF0804000F095FA012111
:1010E000880700F02BFA09B0F0BD000080DE800216
:1010F0001000002010B50221444800F034FA002806
:1011000071D00221414800F016FA4148008840B9E8
:101110003E48343000683F49086001203C4908805F
:101120004CE03B480088012848D10020384908801D
:101130003648343000683849086008460068354948
:10114000096888420ED93448006832490968401A53
:1011500032490860324800682E490968401A31490E
:1011600008602BE02C4800682A490968884220D290
:1011700028480068C0F1FF3027490968084427491A
:1011800008602448006826490968884207D824482E
:10119000006820490968401A224908600EE01D488D
:1011A0000068C0F1FF301E49096808441D49086005
:1011B00004E00020194908601A4908601A480068CC
:1011C000400816490968B0FBF1F080001749086033
:1011D0001448006849F64041484310490968B0FB8B
:1011E000F1F0134908600421084800F0BCF960B12F
:1011F0000421064800F09FF905480088012804D121
:101200000248383000680649086010BD00040040FC
:10121000400000203400002038000020440000205E
:101220003C00002048000020100000202400002086
:101230002800002010B51021264800F094F900285D
:1012400046D01021234800F076F92348008840B9A1
:101250002048403000682149086001201E4908806C
:1012600036E01D480088012832D100201A49088044
:101270001848403000681A49086008460068174955
:101280000968884207D91648006814490968401A55
:101290001449086012E01248006810490968884241
:1012A00009D20E480068C0F1FF300D4909680844B2
:1012B0000C49086002E000200A4908600A480068FA
:1012C000400808490968B0FBF1F0401C0749086074
:1012D00010BD0000000C0040540000204C00002015
:1012E00050000020580000201000002024000020A2
:1012F00010B5044603E04FF47A7000F007F82000C0
:10130000A4F101018CB2F6D110BD000010B5044665
:1013100001210C4800F012F90AE000BF0121094840
:1013200000F018F90028F9D00121064800F000F972
:101330002000A4F101018CB2EFD10021014800F09E
:10134000FDF810BD000800400EB50020ADF800000B
:10135000ADF80200401E01900020ADF8080069467B
:10136000014800F0CFF90EBD0000014000B587B084
:101370000020ADF80400ADF80600401E02900020E9
:10138000ADF80C0001A9104800F0BCF90C20ADF834
:1013900010000020ADF812000120ADF8140000206C
:1013A000ADF81600ADF8180004A9074800F0ECF8F5
:1013B00001221021044800F01EF90121024800F02A
:1013C000BDF807B000BD0000000C004000B587B0BC
:1013D0000020ADF80400ADF80600401E0290002089
:1013E000ADF80C0001A9174800F08CF90020ADF809
:1013F0001000ADF812000120ADF814000820ADF87F
:1014000016000020ADF8180004A90E4800F0BCF842
:101410000420ADF810000220ADF8120004A909481C
:1014200000F0B2F801220221064800F0E4F801229F
:101430000421044800F0DFF80121024800F07EF8A2
:1014400007B000BD000400401CB5C0200090022081
:101450008DF8040000208DF8070069460F48FFF75B
:10146000C0F8022206210D48FFF703F902220721E6
:101470000A48FFF7FEF80820009002208DF80400CB
:1014800000208DF8070069460548FFF7AAF80222F8
:1014900003210348FFF7EDF81CBD000000080240DF
:1014A0000000024010B5FFF7CFFFFFF78FFFFFF7F7
:1014B0005DFF10BD0EB50E48006840080D49B0FB39
:1014C000F1F0401E80B2ADF800000020ADF802003F
:1014D000292001900020ADF808006946064800F078
:1014E00011F9FFF731FF00F009F8FFF7DBFF0EBD40
:1014F0001000002080DE8002000800401CB50220A1
:1015000000908DF8040003208DF8050000208DF870
:10151000060001208DF8070069460448FFF761F8CE
:10152000012211460148FFF7A4F81CBD000002404B
:10153000CA4302827047CA430282704721B10288BF
:1015400042F00102028004E002884FF6FE731A4066
:101550000280704702460020138A0B400BB1012025
:1015600000E00020704730B5024600200023002430
:10157000158A05EA0103958905EA010413B10CB146
:10158000012000E0002030BD70B505460C462088E3
:1015900050B92389A28861882846FFF7DDFCE188DD
:1015A000284600F083F825E0208804280AD1238902
:1015B000A28861882846FFF7ECFCE188284600F005
:1015C0007EF817E0208808280AD12389A28861883C
:1015D0002846FFF706FDE188284600F07DF809E07F
:1015E0002389A28861882846FFF71FFDE1882846E5
:1015F00000F07BF870BD1AB183890B43838102E050
:1016000083898B438381704770B5002400220023B7
:10161000058C4FF6EF7635400584028C8388048B69
:1016200048F6FF752C404FF6FF452C400D884FF6CD
:10163000FF7606EA05252C434FF6DF752A408D8993
:1016400006EA05152A434D8806EA05152A43154D75
:10165000A84202D0144DA8421DD14FF67F752A40F2
:10166000CD894FF6FF7606EA05152A434FF6BF757A
:101670002A408D8806EA05152A434FF6FF352B4090
:101680004FF2FF752B400D8A06EA85052B434D8AE4
:1016900006EA85052B43838004838D688563028475
:1016A00070BD00000000014000040140028B4FF6B5
:1016B000F3731A400283028B0A4302837047028B42
:1016C0004FF2FF331A400283028B4FF6FF7303EA97
:1016D00001231A4302837047828B4FF6F3731A403B
:1016E0008283828B0A4382837047828B4FF2FF335F
:1016F0001A408283828B4FF6FF7303EA01231A4359
:101700008283704700220288184B98420ED0184BF3
:1017100098420BD0B0F1804F08D0164B984205D0BC
:10172000154B984202D0154B984204D14FF68F7357
:101730001A404B881A43124B984207D0114B9842DB
:1017400004D04FF6FF431A400B891A4302804B68BE
:10175000C3620B880385054B984202D0044B984224
:1017600001D18B7A038601238382704700000140F8
:10177000000401400004004000080040000C00404C
:10178000001000400014004010B50648008800F02A
:101790002000202804D103498988C8B200F004F849
:1017A00010BD00000010014010B504462146054858
:1017B00000F0FEF800BF4021024800F057F8002872
:1017C000F9D010BD0010014021B1828942F40052CD
:1017D000828104E082894DF6FF731A40828170474E
:1017E0001FB54FF4E13000900020ADF80400ADF8D3
:1017F0000600ADF80800ADF80C000C20ADF80A00AA
:101800006946074800F064F8012240F22551044877
:1018100000F039F801210248FFF7D6FF1FBD000094
:10182000001001401CB5072209210F48FEF721FFD7
:1018300007220A210C48FEF71CFF4FF400700090AD
:1018400002208DF805008DF8040000208DF80600B8
:1018500069460548FEF7C5FE4FF480600090694672
:101860000148FEF7BEFE1CBD0000024002460020FB
:10187000B1F5007F00D100BF13880B400BB10120F0
:1018800000E000207047F0B5034600240026002544
:10189000002040F66A17B94200D100BF1846C1F3D4
:1018A000421401F01F06012707FA06F5012C01D1A9
:1018B0000C3004E0022C01D1103000E014301AB1D9
:1018C00007682F43076002E00768AF430760F0BD79
:1018D0002DE9FF4705460E460024A14600BFA0465D
:1018E000B08900B100BF2C8A24F44054F08804432E
:1018F0002C82AC8941F20C608443B0883189084362
:10190000718908430443AC81AC8A24F44074B089E3
:101910000443AC826846FFF7D1F92048854202D0E3
:101920001F48854202D1DDF80C9001E0DDF80890F7
:10193000A88900F4004040B109EBC90000EB091090
:1019400031684900B0FBF1F707E009EBC90000EB93
:10195000091031688900B0FBF1F76420B7FBF0F0A3
:1019600004012009642101FB1078A88900F40040DB
:1019700040B1322000EBC800B0FBF1F000F00700EE
:10198000044308E0322000EB08106421B0FBF1F0C2
:1019900000F00F0004432C81BDE8FF8700100140D8
:1019A0000014014010B5FFF73DFFFFF719FF10BD10
:1019B000C1F308028280704700BFFEE702E008C85A
:1019C000121F08C1002AFAD170477047002001E0B9
:1019D00001C1121F002AFBD17047000008B5FFF7B4
:1019E000AFFA0A213748FFF749FB102336A200213E
:1019F0000846FFF7C9F8102335A219460020FFF763
:101A0000C3F8102334A220210020FFF7BDF81023D3
:101A100033A230210020FFF7B7F8102332A20021B3
:101A20007820FFF7B1F8102330A219467820FFF78D
:101A3000ABF810232EA220217820FFF7A5F8102361
:101A40002CA230217820FFF79FF839E080212A4826
:101A5000FEF732FEFEF734FE00F064F82749086016
:101A60002748006800EB80004000254908601020EE
:101A70000A2300902348026800212820FFF73AF843
:101A800010200A2300902048026810212820FFF728
:101A900031F81020042300901948026820212820E2
:101AA000FFF728F810200A2300901448302102681C
:101AB0002820FFF71FF8FEF771FF6420FFF718FCDE
:101AC000C4E7000040420F00467265713A00000012
:101AD000447574793A000000526973653A00000059
:101AE0004D6178203A000000480000002500000009
:101AF0006E0000006D000000000002403000002079
:101B00002C000020240000202800002010B50246F0
:101B1000012000E050430B00A1F10104E1B2F9D132
:101B200010BD00000020264A1088012108E0244A48
:101B300032F81120824202D9214A32F81100491CA0
:101B40003229F4D340F6E4424243100BC82806D2AF
:101B50000A22B0FBF2F202EB8202104421E0B0F55F
:101B6000FA7F06D20A22B0FBF2F202EB42021044E4
:101B700017E0B0F5966F05D20A22B0FBF2F200EB47
:101B800042000EE0B0F5FA6F06D26422B0FBF2F329
:101B900002FB1302104404E040F6E442904200D2FB
:101BA0005030084A126802F400620AB1400006E0B0
:101BB000044A126802F480520AB100EB40007047F8
:101BC0005C0400201404024000000000000000003B
:101BD00000000000000000003F4000000000000086
:101BE00000003000400030004000000009000BC041
:101BF0003D000BC03D00090018C024407FE022409A
:101C000031800000180024C01B000D80324001808C
:101C100003801C4027401C800740004010006000EB
:101C200000000000000000000000000000001F8015
:101C3000204040200000402020401F800000000085
:101C4000090006001F8006000900000004000400CF
:101C50003F8004000400000000100060000000004D
:101C60000000000004000400040004000400000060
:101C7000000000400000000000000000002001C043
:101C800006003800400000001F8020402040204017
:101C90001F800000000010403FC000400000000016
:101CA00018C02140224024401840000010802040ED
:101CB000244024401B80000002000D0011003FC0A2
:101CC000014000003C802440244024402380000048
:101CD0001F80244024403440038000003000200056
:101CE00027C03800200000001B80244024402440EE
:101CF0001B8000001C0022C0224022401F800000E8
:101D0000000000000840000000000000000000008B
:101D10000460000000000000000004000A00110040
:101D20002080404009000900090009000900000066
:101D300000004040208011000A000400180020002C
:101D400023402400180000001F8020402740294025
:101D50001F400000004007C039000F0001C00040D4
:101D600020403FC0244024401B8000001F802040B2
:101D7000204020403080000020403FC020402040D4
:101D80001F80000020403FC024402E4030C0000093
:101D900020403FC024402E00300000000F00108083
:101DA000204022403380020020403FC00400040055
:101DB0003FC02040204020403FC020402040000045
:101DC0000060202020203FC02000200020403FC095
:101DD00024400B0030C0204020403FC02040004045
:101DE000004000C03FC03C0003C03C003FC00000BA
:101DF00020403FC00C4023003FC020001F802040F7
:101E0000204020401F80000020403FC0244024008C
:101E1000180000001F802140214020E01FA000008A
:101E200020403FC02440260019C0004018C0244074
:101E30002440224031800000300020403FC020403C
:101E40003000000020003F80004000403F80200024
:101E500020003E0001C0070038002000380007C005
:101E60003C0007C038000000204039C0060039C0DF
:101E7000204000002000384007C03840200000000B
:101E8000304021C02640384020C000000000000043
:101E90007FE0402040200000000070000C00038024
:101EA000004000000000402040207FE000000000D3
:101EB0000000200040002000000000000010001082
:101EC0000010001000100010000000004000000092
:101ED00000000000000002800540054003C00040F3
:101EE00020003FC004400440038000000000038045
:101EF00004400440064000000000038004402440E9
:101F00003FC0004000000380054005400340000042
:101F1000000004401FC0244024402000000002E0D4
:101F2000055005500650042020403FC004400400E6
:101F300003C000400000044027C000400000000033
:101F400000100010041027E00000000020403FC0F7
:101F50000140070004C00440204020403FC0004032
:101F60000040000007C0040007C0040003C00000D8
:101F7000044007C00440040003C000400000038088
:101F80000440044003800000041007F004500440A3
:101F900003800000000003800440045007F000109C
:101FA000044007C002400400040000000000064096
:101FB0000540054004C00000000004001F800440EC
:101FC00000400000040007800040044007C00040BB
:101FD0000400070004C0018006000400060001C0E0
:101FE000070001C006000000044006C0010006C052
:101FF000044000000410071004E001800600040003
:102000000000044005C0064004400000000000003D
:1020100004007BE040200000000000000000FFF012
:1020200000000000000040207BE0040000000000F1
:102030004000800040002000200040000000000020
:102040000000000000000000000000000000000090
:1020500000001FCC000C0000000000000000080081
:10206000300060000800300060000000022003FC27
:102070001E20022003FC1E200220000000000E187B
:1020800011043FFF10840C78000000000F00108442
:102090000F3800C0077818840078000000780F849B
:1020A00010C411240E9800E40084000808006800A1
:1020B00070000000000000000000000000000000B0
:1020C000000007E018182004400200000000400251
:1020D0002004181807E00000000000000240024041
:1020E00001800FF00180024002400000008000806B
:1020F00000800FF800800080008000000001000DCB
:10210000000E000000000000000000000000008041
:102110000080008000800080008000800000000CB3
:10212000000C00000000000000000000000000069D
:10213000001800600180060018002000000007F071
:10214000080810041004080807F000000000080444
:1021500008041FFC000400040000000000000E0C36
:1021600010141024104411840E0C000000000C18F0
:1021700010041104110412880C700000000000E02B
:102180000320042408241FFC0024000000001F98E2
:10219000108411041104108810700000000007F072
:1021A00008881104110418880070000000001C0049
:1021B000100010FC13001C001000000000000E387E
:1021C00011441084108411440E38000000000700F0
:1021D000088C10441044088807F00000000000003C
:1021E0000000030C030C00000000000000000000D1
:1021F0000001010600000000000000000000008057
:1022000001400220041008081004000002200220EF
:102210000220022002200220022000000000100400
:1022200008080410022001400080000000000E0099
:102230001200100C106C10800F00000003E00C184E
:1022400013E4142417C4082807D000000004003C3D
:1022500003C41C40074000E4001C000410041FFCE1
:102260001104110411040E880070000003E00C1822
:1022700010041004100410081C10000010041FFCAF
:10228000100410041004080807F0000010041FFCDC
:102290001104110417C410040818000010041FFCD6
:1022A0001104110017C010000800000003E00C1812
:1022B0001004100410441C780040000010041FFC9F
:1022C00010840080008010841FFC100400001004A3
:1022D00010041FFC100410040000000000030001A3
:1022E000100110011FFE10001000000010041FFC60
:1022F000110403801464181C1004000010041FFC57
:102300001004000400040004000C000010041FFC72
:102310001F0000FC1F001FFC1004000010041FFC25
:102320000C04030000E010181FFC100007F0080860
:10233000100410041004080807F0000010041FFC2B
:1023400010841080108010800F00000007F0081823
:1023500010241024101C080A07F2000010041FFCAF
:102360001104110011C011300E0C000400000E1CED
:1023700011041084108410441C3800001800100050
:1023800010041FFC100410001800000010001FF8BB
:1023900010040004000410041FF8100010001E00B8
:1023A00011E0001C007013801C0010001FC0103CC6
:1023B00000E01F0000E0103C1FC000001004180CDB
:1023C000163401C001C01634180C100410001C0093
:1023D000130400FC13041C00100000000804101C6F
:1023E0001064108413041C04101800000000000086
:1023F00000007FFE4002400240020000000030006A
:102400000C0003800060001C00030000000040027C
:10241000400240027FFE00000000000000000000BB
:1024200020004000400040002000000000010001AA
:102430000001000100010001000100010000400056
:102440004000200000000000000000000000009894
:10245000012401440144014400FC000410001FFC5D
:102460000088010401040088007000000000007072
:1024700000880104010401040088000000000070CD
:1024800000880104010411081FFC0004000000F88A
:10249000014401440144014400C80000000001045B
:1024A00001040FFC1104110411001800000000D6F3
:1024B00001290129012901C90106000010041FFC9E
:1024C000008401000100010400FC0004000001047C
:1024D000190419FC000400040000000000000003BF
:1024E00000010101190119FE0000000010041FFC89
:1024F0000024004001B4010C01040000000010049D
:1025000010041FFC0004000400000000010401FC92
:102510000104010001FC0104010000FC010401FCB4
:10252000008401000100010400FC0004000000F828
:10253000010401040104010400F80000010101FF8D
:102540000085010401040088007000000000007094
:10255000008801040104010501FF000101040104D8
:1025600001FC00840104010001800000000000CC97
:10257000012401240124012401980000000001002D
:10258000010007F80104010400000000010001F847
:10259000000400040004010801FC000401000180A3
:1025A0000170000C001001600180010001F0010CBD
:1025B000003001C00030010C01F0010000000104F6
:1025C000018C00740170018C010400000101018183
:1025D0000171000E001801600180010000000184FB
:1025E000010C013401440184010C000000000000D2
:1025F0000000000001003EFC40024002000000001C
:1026000000000000FFFF000000000000000040028A
:1026100040023EFC010000000000000000006000DD
:1026200080008000400040002000200000000000EA
:10263000000000000000000000000000000000009A
:10264000000000000000000000000000000000008A
:102650000000000000000000000000000000000F6B
:1026600080380FFE380F80380000000000000000A6
:102670000000000000000000000001000006000053
:102680000C00003800003100000600000C0000388B
:1026900000003000000000000000000061800067C2
:1026A000F807F9800061800061800061800061802E
:1026B0000067F807F980006180000000000000005A
:1026C000000001C0E003E0F00630080418081FFF16
:1026D000FE040E080787F00381E000000000000000
:1026E00001F000060C00040408060C7001F9C0009B
:1026F0000E00003BE000EC18070808040C1800036B
:10270000E00000000001E00007F003F818041C08D6
:1027100004170807E1D003C0E00023B0003C080024
:10272000200800001000000000000001000031003F
:10273000003200001C00000000000000000000004B
:102740000000000000000000000000000000000089
:102750000000000000000000000000007F0001FFFA
:10276000C00780F00C0018100004200002000000D8
:102770000000002000021000040C00180780F00187
:10278000FFC0007F0000000000000000000000000B
:10279000000000000000000042000066000066002B
:1027A000003C0000180003FFC0001800003C0000BF
:1027B00066000066000042000000000008000008FB
:1027C0000000080000080000080001FFC000080029
:1027D00000080000080000080000080000000000D9
:1027E000000100003100003200001C000000000069
:1027F00000000000000000000000000000000000D9
:1028000000000000080000080000080000080000A8
:102810000800000800000800000800000800000888
:102820000000000000000000000000003800003838
:102830000000380000000000000000000000000060
:102840000000000000000000000000000006000082
:102850001C000070000180000E0000380000C00065
:102860000700001C00003000000000000000000015
:102870007F8001FFE0038070060018040008040058
:102880000806001803807001FFE0007F8000000050
:10289000000000000000010008010008010008031A
:1028A000FFF807FFF800000800000800000800001B
:1028B0000000000000000001C03802C05804009869
:1028C000040118040218040418061C1803F818015F
:1028D000E0F800000000000000000001C0E003C0BC
:1028E000F004000804080804080806180803F4188F
:1028F00001E7F00001E0000000000000000000001F
:102900000300000D000011000061000081080301B8
:102910000807FFF80FFFF800010800010800000099
:102920000000000000E007FCD006080806100806BA
:102930001008061008061838060FF00607C0000039
:1029400000000000000000003F8001FFE003843031
:1029500002081804100804100804100807181003CF
:102960000FF00007C000000000000000000003C0DE
:10297000000700000600000600F80607F806180029
:1029800006E0000700000600000000000000000153
:10299000E1E003F7F0063410041808041808040CEA
:1029A00008040C0806161803F3F001C1E00000004B
:1029B00000000000F80003FC30030638040208049D
:1029C00002080402080404100308F001FFC0007F9D
:1029D00000000000000000000000000000000000F7
:1029E00000000000703800703800703800000000EF
:1029F00000000000000000000000000000000000D7
:102A00000000000000000000301A00301C00000030
:102A100000000000000000000000000000000000B6
:102A200000000008000014000022000041000080A7
:102A3000800100400200200400100800080000008F
:102A40000000000021000021000021000021000002
:102A500021000021000021000021000021000021B0
:102A60000000000000000000000008000804001042
:102A70000200200100400080800041000022000090
:102A8000140000080000000000000003C00004C0A3
:102A900000040000080038080F3808083808100043
:102AA0000C300007E00003C0000000000000000040
:102AB0003F8000FFE0038070020F1006708804C0A2
:102AC00088048308047F8802C09003012000FE4030
:102AD0000000080000180001F8003E0801C20007CD
:102AE000020007E20000FE00001FC80001F800001D
:102AF0003800000804000807FFF807FFF80408087A
:102B000004080804080804080806180803F4180153
:102B1000E7F00001E0000000000000003F8001FF3E
:102B2000E003807002001804000804000804000894
:102B30000400100600200780C00000000400080701
:102B4000FFF807FFF8040008040008040008040068
:102B50001802001003807001FFE0007F8000000079
:102B600004000807FFF807FFF80408080408080431
:102B70000808040808043E080400080600180100BC
:102B80006000000004000807FFF807FFF8040808C9
:102B9000040800040800040800043E0006000006C3
:102BA0000000018000000000000000003F8001FFE5
:102BB000E0038070060018040008040208040208FC
:102BC0000203F00783F0000200000200040008077F
:102BD000FFF807FFF80408080008000008000008D4
:102BE0000000080004080807FFF807FFF8040008C1
:102BF00000000000000004000804000804000807AA
:102C0000FFF807FFF80400080400080400080000AB
:102C100000000000000000000006000007000001A6
:102C200004000104000104000307FFFE07FFFC0489
:102C3000000004000004000004000807FFF807FF7C
:102C4000F8040C08001800003E0004C7800503C803
:102C50000600F80400380400180000080400080703
:102C6000FFF807FFF8040008000008000008000053
:102C700008000008000008000018000060000000C4
:102C800004000807FFF807800807FC00007FC00069
:102C900003F80007C000780007800807FFF807FF67
:102CA000F804000804000807FFF807000803C00044
:102CB00000E000003800001E000007000001C00412
:102CC00000F007FFF8040000000000007F8001FF13
:102CD000E0038070060018040008040008060018CD
:102CE00003003001FFE0007F8000000004000807BF
:102CF000FFF807FFF80404080404000404000404B7
:102D000000040400060C0003F80001F000000000BD
:102D1000000000007F8001FFE0038070060088044F
:102D200000880400C806003C03003E01FFE6007F67
:102D30008400000004000807FFF807FFF8040808F3
:102D4000040800040C00040F00040BC00610F0037C
:102D5000F03801E00800000800000001E0F803F08E
:102D600030063010041808041808040C08040C0875
:102D70000206180207F00781E0000000018000064B
:102D8000000004000004000004000807FFF807FF2B
:102D9000F8040008040000040000060000018000A0
:102DA00004000007FFE007FFF0040018000008001F
:102DB000000800000800000800000804001007FFD9
:102DC000E004000004000006000007E00007FE0029
:102DD000041FE00001F80000380001E0043E000795
:102DE000C00006000004000004000007E00007FF28
:102DF000C0041FF80007C007F80007FF80043FF871
:102E00000007C004F80007000004000000000004F0
:102E1000000806001807C07805F1C8003E00001F32
:102E2000800463E80780F80600180400080000002A
:102E300004000006000007800007E008047C08008A
:102E40001FF80007F800180804E008070000060053
:102E5000000400000000000100080600380400F82B
:102E60000403E8040F08047C0805F00807C00807FD
:102E700000180400600000000000000000000000D6
:102E8000000000000000003FFFFE200002200002C2
:102E900020000220000220000200000000000000CC
:102EA000000008000007000000C000003800000615
:102EB000000001C000003000000E00000100000012
:102EC000000000000000200002200002200002207C
:102ED00000022000023FFFFE000000000000000092
:102EE00000000000000000000000000000080000DA
:102EF000100000300000200000300000100000082A
:102F000000000000000000000000010000010000BF
:102F100001000001000001000001000001000001AB
:102F2000000001000001000001000001000000009D
:102F30000000000000200000200000100000100031
:102F40000000000000000000000000000000000081
:102F50000000000000F00019F8001B180022080013
:102F60002608002408002410003FF8001FF8000085
:102F70000800001800000004000007FFF80FFFF031
:102F80000018180010080020080020080030180061
:102F90001FF0000FC00000000000000007C0001F6D
:102FA000F0001830002008002008002008003C082D
:102FB000001C100000600000000000000000000085
:102FC00007C0001FF000381800200800200800206B
:102FD0000804101007FFF80FFFF0000010000000B9
:102FE0000000000000000007C0001FF000123000C9
:102FF0002218002208002208003208001E10000ECD
:103000002000000000000000200000200800200830
:1030100001FFF803FFF80620080420080420080731
:10302000200003000000000000000000000E000E61
:103030006E001FF30031B10020B10020B1003191CA
:10304000001F13002E1E00200E00300000000004A0
:10305000000807FFF80FFFF800100800200000200C
:1030600000002008003FF8001FF8000008000000E2
:1030700000000000000000200800200800200806D2
:103080003FF8063FF80000080000080000080000B4
:10309000000000000000000000000000030000032A
:1030A000002001002001002003063FFE063FFC0037
:1030B000000000000000000000000004000807FFFE
:1030C000F80FFFF8000188000300002FC00038F857
:1030D0000020380020080000080000000000000068
:1030E000000004000804000804000807FFF80FFFB0
:1030F000F8000008000008000008000000000000C0
:10310000002008003FF8003FF800100800200000F1
:103110003FF8003FF8001008002000003FF8003F93
:10312000F8000008000000002008003FF8003FF809
:10313000001008001000002000002008003FF800E8
:103140001FF80000080000000000000007C0000F8A
:10315000F000183000300800200800200800300877
:10316000001830000FF00007C00000000000000051
:103170002001003FFF003FFF001011002009002048
:1031800008002008003038001FF0000FC0000000C9
:103190000000000007C0001FF000381800200800E1
:1031A0002008002009001011001FFF003FFF000051
:1031B00001000000002008002008002008003FF85F
:1031C000003FF80008080010080020080020000058
:1031D0003000003000000000000000000000000C83
:1031E00078001E18003308002308002108002188F9
:1031F0000021980030F0003860000000000000005E
:10320000200000200000200000FFF003FFF8002055
:103210000800200800200800003000000000000026
:10322000000000002000003FF0007FF800001800C0
:103230000008000008002010003FF8007FF00000A8
:1032400010000000000000002000003000003C00E2
:10325000003F800023F00000780000700023800011
:103260003C00003000002000002000003C00003F37
:10327000E00023F80000E0002700003E00003FE0EF
:103280000021F80001E0003E0000200000000000E6
:103290002008002008003838003E6800278000031E
:1032A000C8002CF800383800201800200800000062
:1032B000000000002000003003003C01003F8300BC
:1032C00023EC000070002380003C00002000002060
:1032D0000000000000000000000000380800203856
:1032E0000020F80023E8002F88003E08003808007E
:1032F0002018000070000000000000000000000026
:10330000000000000000000008000014001FF7FC8F
:103310003000062000020000000000000000000055
:103320000000000000000000000000000000FFFF9F
:10333000FF0000000000000000000000000000008E
:103340000000000000002000023000061FF7FC0013
:103350001400000800000000000000000000000051
:1033600000000000000000180000600000400000A5
:1033700040000020000010000008000004000004CD
:1033800000000C0000100000A8330008000000201E
:103390005C000000BC190008043400085C00002038
:1033A00064080000CC1900080000000001020304BA
:1033B0000102030406070809007A030A000000005E
:1033C00000000000010203040607080900000000D5
:1033D00000000000000000000000000000000000ED
:1033E00000000000000000000000000000000000DD
:1033F00000000000000000000000000000000000CD
:0434000000000000C8
:040000050800018965
:00000001FF
